{
  "contractName": "SuperBowlPool",
  "abi": [
    {
      "inputs": [
        {
          "internalType": "address payable",
          "name": "ceoAddress",
          "type": "address"
        },
        {
          "internalType": "address payable",
          "name": "devAddress",
          "type": "address"
        }
      ],
      "stateMutability": "nonpayable",
      "type": "constructor"
    },
    {
      "inputs": [],
      "name": "USDC",
      "outputs": [
        {
          "internalType": "contract IERC20",
          "name": "",
          "type": "address"
        }
      ],
      "stateMutability": "view",
      "type": "function",
      "constant": true
    },
    {
      "inputs": [],
      "name": "ceoFee",
      "outputs": [
        {
          "internalType": "uint16",
          "name": "",
          "type": "uint16"
        }
      ],
      "stateMutability": "view",
      "type": "function",
      "constant": true
    },
    {
      "inputs": [],
      "name": "ceoWallet",
      "outputs": [
        {
          "internalType": "address payable",
          "name": "",
          "type": "address"
        }
      ],
      "stateMutability": "view",
      "type": "function",
      "constant": true
    },
    {
      "inputs": [],
      "name": "devFee",
      "outputs": [
        {
          "internalType": "uint16",
          "name": "",
          "type": "uint16"
        }
      ],
      "stateMutability": "view",
      "type": "function",
      "constant": true
    },
    {
      "inputs": [],
      "name": "devWallet",
      "outputs": [
        {
          "internalType": "address payable",
          "name": "",
          "type": "address"
        }
      ],
      "stateMutability": "view",
      "type": "function",
      "constant": true
    },
    {
      "inputs": [],
      "name": "leftOver",
      "outputs": [
        {
          "internalType": "uint256",
          "name": "",
          "type": "uint256"
        }
      ],
      "stateMutability": "view",
      "type": "function",
      "constant": true
    },
    {
      "inputs": [
        {
          "internalType": "uint8",
          "name": "selection",
          "type": "uint8"
        },
        {
          "internalType": "uint256",
          "name": "amount",
          "type": "uint256"
        }
      ],
      "name": "makeBet",
      "outputs": [],
      "stateMutability": "nonpayable",
      "type": "function"
    },
    {
      "inputs": [],
      "name": "withdraw",
      "outputs": [],
      "stateMutability": "nonpayable",
      "type": "function"
    },
    {
      "inputs": [
        {
          "internalType": "uint8",
          "name": "result",
          "type": "uint8"
        }
      ],
      "name": "theScore",
      "outputs": [],
      "stateMutability": "nonpayable",
      "type": "function"
    },
    {
      "inputs": [],
      "name": "getInfo",
      "outputs": [
        {
          "internalType": "uint8",
          "name": "playersChoice",
          "type": "uint8"
        },
        {
          "internalType": "uint256",
          "name": "playersInvestment",
          "type": "uint256"
        },
        {
          "internalType": "uint256",
          "name": "totalEntirePool",
          "type": "uint256"
        },
        {
          "internalType": "uint256",
          "name": "totalPool1",
          "type": "uint256"
        },
        {
          "internalType": "uint256",
          "name": "totalPool2",
          "type": "uint256"
        }
      ],
      "stateMutability": "view",
      "type": "function",
      "constant": true
    }
  ],
  "bytecode": "0x60806040526361fcb294600760016101000a81548164ffffffffff021916908364ffffffffff1602179055506361fcb1a4600760066101000a81548164ffffffffff021916908364ffffffffff1602179055503480156200005f57600080fd5b5060405162001cb938038062001cb98339818101604052810190620000859190620001cd565b81600260006101000a81548173ffffffffffffffffffffffffffffffffffffffff021916908373ffffffffffffffffffffffffffffffffffffffff16021790555080600360006101000a81548173ffffffffffffffffffffffffffffffffffffffff021916908373ffffffffffffffffffffffffffffffffffffffff1602179055507378867bbeef44f2326bf8ddd1941a4439382ef2a76000806101000a81548173ffffffffffffffffffffffffffffffffffffffff021916908373ffffffffffffffffffffffffffffffffffffffff160217905550505062000214565b600080fd5b600073ffffffffffffffffffffffffffffffffffffffff82169050919050565b6000620001958262000168565b9050919050565b620001a78162000188565b8114620001b357600080fd5b50565b600081519050620001c7816200019c565b92915050565b60008060408385031215620001e757620001e662000163565b5b6000620001f785828601620001b6565b92505060206200020a85828601620001b6565b9150509250929050565b611a9580620002246000396000f3fe608060405234801561001057600080fd5b506004361061009e5760003560e01c806389a302711161006657806389a30271146101295780638ea5220f146101475780638f797eb9146101655780639d222a1714610181578063b5c5c83e1461019f5761009e565b8063389cabee146100a35780633ccfd60b146100c15780635a9b0b89146100cb5780636827e764146100ed5780637a4480c21461010b575b600080fd5b6100ab6101bb565b6040516100b89190610f85565b60405180910390f35b6100c96101e1565b005b6100d36105ae565b6040516100e4959493929190610fd5565b60405180910390f35b6100f561062a565b6040516101029190611045565b60405180910390f35b61011361062f565b6040516101209190611045565b60405180910390f35b610131610634565b60405161013e91906110bf565b60405180910390f35b61014f610658565b60405161015c9190610f85565b60405180910390f35b61017f600480360381019061017a919061110b565b61067e565b005b6101896106f6565b6040516101969190611138565b60405180910390f35b6101b960048036038101906101b4919061117f565b6106fc565b005b600260009054906101000a900473ffffffffffffffffffffffffffffffffffffffff1681565b6000600160003373ffffffffffffffffffffffffffffffffffffffff1673ffffffffffffffffffffffffffffffffffffffff16815260200190815260200160002090506001600760009054906101000a900460ff1660ff16148061025757506002600760009054906101000a900460ff1660ff16145b610296576040517f08c379a000000000000000000000000000000000000000000000000000000000815260040161028d90611242565b60405180910390fd5b600760009054906101000a900460ff1660ff168160000160009054906101000a900460ff1660ff16146102fe576040517f08c379a00000000000000000000000000000000000000000000000000000000081526004016102f5906112ae565b60405180910390fd5b6000429050600760019054906101000a900464ffffffffff1664ffffffffff168164ffffffffff161161033057600080fd5b6000826001015490506000811161037c576040517f08c379a00000000000000000000000000000000000000000000000000000000081526004016103739061131a565b60405180910390fd5b600760009054906101000a900460ff1660ff168360000160009054906101000a900460ff1660ff161480156103c5575060018360000160009054906101000a900460ff1660ff16145b1561048f5760006103f96004546103eb6103e861ffff1685610aef90919063ffffffff16565b610b6a90919063ffffffff16565b9050600061042a6103e861ffff1661041c60055485610aef90919063ffffffff16565b610b6a90919063ffffffff16565b90506000818461043a9190611369565b9050610487338260008054906101000a900473ffffffffffffffffffffffffffffffffffffffff1673ffffffffffffffffffffffffffffffffffffffff16610bc89092919063ffffffff16565b50505061059f565b600760009054906101000a900460ff1660ff168360000160009054906101000a900460ff1660ff161480156104d8575060028360000160009054906101000a900460ff1660ff16145b1561059e57600061050c6005546104fe6103e861ffff1685610aef90919063ffffffff16565b610b6a90919063ffffffff16565b9050600061053d6103e861ffff1661052f60045485610aef90919063ffffffff16565b610b6a90919063ffffffff16565b90506000818461054d9190611369565b905061059a338260008054906101000a900473ffffffffffffffffffffffffffffffffffffffff1673ffffffffffffffffffffffffffffffffffffffff16610bc89092919063ffffffff16565b5050505b5b60008360010181905550505050565b600080600080600080600160003373ffffffffffffffffffffffffffffffffffffffff1673ffffffffffffffffffffffffffffffffffffffff16815260200190815260200160002090508060000160009054906101000a900460ff16816001015460065460045460055495509550955095509550509091929394565b603281565b603281565b60008054906101000a900473ffffffffffffffffffffffffffffffffffffffff1681565b600360009054906101000a900473ffffffffffffffffffffffffffffffffffffffff1681565b600260009054906101000a900473ffffffffffffffffffffffffffffffffffffffff1673ffffffffffffffffffffffffffffffffffffffff163373ffffffffffffffffffffffffffffffffffffffff16146106d857600080fd5b80600760006101000a81548160ff021916908360ff16021790555050565b61038481565b60018260ff161480610711575060028260ff16145b610750576040517f08c379a00000000000000000000000000000000000000000000000000000000081526004016107479061140b565b60405180910390fd5b6002811015610794576040517f08c379a000000000000000000000000000000000000000000000000000000000815260040161078b90611477565b60405180910390fd5b600760069054906101000a900464ffffffffff1664ffffffffff1642106107ba57600080fd5b6000600160003373ffffffffffffffffffffffffffffffffffffffff1673ffffffffffffffffffffffffffffffffffffffff168152602001908152602001600020905060008160000160009054906101000a900460ff1660ff1614610873578260ff168160000160009054906101000a900460ff1660ff1614610872576040517f08c379a000000000000000000000000000000000000000000000000000000000815260040161086990611509565b60405180910390fd5b5b600042905060006108aa6103e861ffff1661089c603261ffff1687610aef90919063ffffffff16565b610b6a90919063ffffffff16565b905060006108de6103e861ffff166108d0603261ffff1688610aef90919063ffffffff16565b610b6a90919063ffffffff16565b905061092d33308760008054906101000a900473ffffffffffffffffffffffffffffffffffffffff1673ffffffffffffffffffffffffffffffffffffffff16610c4e909392919063ffffffff16565b61099a600260009054906101000a900473ffffffffffffffffffffffffffffffffffffffff168360008054906101000a900473ffffffffffffffffffffffffffffffffffffffff1673ffffffffffffffffffffffffffffffffffffffff16610bc89092919063ffffffff16565b610a07600360009054906101000a900473ffffffffffffffffffffffffffffffffffffffff168260008054906101000a900473ffffffffffffffffffffffffffffffffffffffff1673ffffffffffffffffffffffffffffffffffffffff16610bc89092919063ffffffff16565b858460000160006101000a81548160ff021916908360ff1602179055506000610a536103e861ffff16610a4561038489610aef90919063ffffffff16565b610b6a90919063ffffffff16565b905080856001016000828254610a699190611369565b9250508190555060018760ff161415610ab3578060046000828254610a8e9190611369565b925050819055508060066000828254610aa79190611369565b92505081905550610ae6565b8060056000828254610ac59190611369565b925050819055508060066000828254610ade9190611369565b925050819055505b50505050505050565b600080831415610b025760009050610b64565b60008284610b109190611529565b9050828482610b1f91906115b2565b14610b5f576040517f08c379a0000000000000000000000000000000000000000000000000000000008152600401610b5690611655565b60405180910390fd5b809150505b92915050565b6000808211610bae576040517f08c379a0000000000000000000000000000000000000000000000000000000008152600401610ba5906116c1565b60405180910390fd5b60008284610bbc91906115b2565b90508091505092915050565b610c498363a9059cbb60e01b8484604051602401610be7929190611702565b604051602081830303815290604052907bffffffffffffffffffffffffffffffffffffffffffffffffffffffff19166020820180517bffffffffffffffffffffffffffffffffffffffffffffffffffffffff8381831617835250505050610cd7565b505050565b610cd1846323b872dd60e01b858585604051602401610c6f9392919061172b565b604051602081830303815290604052907bffffffffffffffffffffffffffffffffffffffffffffffffffffffff19166020820180517bffffffffffffffffffffffffffffffffffffffffffffffffffffffff8381831617835250505050610cd7565b50505050565b6000610d39826040518060400160405280602081526020017f5361666545524332303a206c6f772d6c6576656c2063616c6c206661696c65648152508573ffffffffffffffffffffffffffffffffffffffff16610d9e9092919063ffffffff16565b9050600081511115610d995780806020019051810190610d59919061179a565b610d98576040517f08c379a0000000000000000000000000000000000000000000000000000000008152600401610d8f90611839565b60405180910390fd5b5b505050565b6060610dad8484600085610db6565b90509392505050565b606082471015610dfb576040517f08c379a0000000000000000000000000000000000000000000000000000000008152600401610df2906118cb565b60405180910390fd5b610e0485610eca565b610e43576040517f08c379a0000000000000000000000000000000000000000000000000000000008152600401610e3a90611937565b60405180910390fd5b6000808673ffffffffffffffffffffffffffffffffffffffff168587604051610e6c91906119d1565b60006040518083038185875af1925050503d8060008114610ea9576040519150601f19603f3d011682016040523d82523d6000602084013e610eae565b606091505b5091509150610ebe828286610edd565b92505050949350505050565b600080823b905060008111915050919050565b60608315610eed57829050610f3d565b600083511115610f005782518084602001fd5b816040517f08c379a0000000000000000000000000000000000000000000000000000000008152600401610f349190611a3d565b60405180910390fd5b9392505050565b600073ffffffffffffffffffffffffffffffffffffffff82169050919050565b6000610f6f82610f44565b9050919050565b610f7f81610f64565b82525050565b6000602082019050610f9a6000830184610f76565b92915050565b600060ff82169050919050565b610fb681610fa0565b82525050565b6000819050919050565b610fcf81610fbc565b82525050565b600060a082019050610fea6000830188610fad565b610ff76020830187610fc6565b6110046040830186610fc6565b6110116060830185610fc6565b61101e6080830184610fc6565b9695505050505050565b600061ffff82169050919050565b61103f81611028565b82525050565b600060208201905061105a6000830184611036565b92915050565b6000819050919050565b600061108561108061107b84610f44565b611060565b610f44565b9050919050565b60006110978261106a565b9050919050565b60006110a98261108c565b9050919050565b6110b98161109e565b82525050565b60006020820190506110d460008301846110b0565b92915050565b600080fd5b6110e881610fa0565b81146110f357600080fd5b50565b600081359050611105816110df565b92915050565b600060208284031215611121576111206110da565b5b600061112f848285016110f6565b91505092915050565b600060208201905061114d6000830184610fc6565b92915050565b61115c81610fbc565b811461116757600080fd5b50565b60008135905061117981611153565b92915050565b60008060408385031215611196576111956110da565b5b60006111a4858286016110f6565b92505060206111b58582860161116a565b9150509250929050565b600082825260208201905092915050565b7f57696e6e6572206973206e6f7420617661696c61626c652e205265717569726560008201527f2077696e6e65722031206f722032000000000000000000000000000000000000602082015250565b600061122c602e836111bf565b9150611237826111d0565b604082019050919050565b6000602082019050818103600083015261125b8161121f565b9050919050565b7f506c617965722063686f696365206973206e6f742077696e6e65720000000000600082015250565b6000611298601b836111bf565b91506112a382611262565b602082019050919050565b600060208201905081810360008301526112c78161128b565b9050919050565b7f546f74616c20776974686472617761626c652073686f756c64206265203e2030600082015250565b60006113046020836111bf565b915061130f826112ce565b602082019050919050565b60006020820190508181036000830152611333816112f7565b9050919050565b7f4e487b7100000000000000000000000000000000000000000000000000000000600052601160045260246000fd5b600061137482610fbc565b915061137f83610fbc565b9250827fffffffffffffffffffffffffffffffffffffffffffffffffffffffffffffffff038211156113b4576113b361133a565b5b828201905092915050565b7f53656c656374696f6e206e6565647320746f2062652031206f72203200000000600082015250565b60006113f5601c836111bf565b9150611400826113bf565b602082019050919050565b60006020820190508181036000830152611424816113e8565b9050919050565b7f416d6f756e74206e6565647320746f20626520686967686572207468616e2032600082015250565b60006114616020836111bf565b915061146c8261142b565b602082019050919050565b6000602082019050818103600083015261149081611454565b9050919050565b7f54686520706c617965722063686f696365206e6565647320746f20626520746860008201527f652073616d65207465616d2061732073656c65637465642e0000000000000000602082015250565b60006114f36038836111bf565b91506114fe82611497565b604082019050919050565b60006020820190508181036000830152611522816114e6565b9050919050565b600061153482610fbc565b915061153f83610fbc565b9250817fffffffffffffffffffffffffffffffffffffffffffffffffffffffffffffffff04831182151516156115785761157761133a565b5b828202905092915050565b7f4e487b7100000000000000000000000000000000000000000000000000000000600052601260045260246000fd5b60006115bd82610fbc565b91506115c883610fbc565b9250826115d8576115d7611583565b5b828204905092915050565b7f536166654d6174683a206d756c7469706c69636174696f6e206f766572666c6f60008201527f7700000000000000000000000000000000000000000000000000000000000000602082015250565b600061163f6021836111bf565b915061164a826115e3565b604082019050919050565b6000602082019050818103600083015261166e81611632565b9050919050565b7f536166654d6174683a206469766973696f6e206279207a65726f000000000000600082015250565b60006116ab601a836111bf565b91506116b682611675565b602082019050919050565b600060208201905081810360008301526116da8161169e565b9050919050565b60006116ec82610f44565b9050919050565b6116fc816116e1565b82525050565b600060408201905061171760008301856116f3565b6117246020830184610fc6565b9392505050565b600060608201905061174060008301866116f3565b61174d60208301856116f3565b61175a6040830184610fc6565b949350505050565b60008115159050919050565b61177781611762565b811461178257600080fd5b50565b6000815190506117948161176e565b92915050565b6000602082840312156117b0576117af6110da565b5b60006117be84828501611785565b91505092915050565b7f5361666545524332303a204552433230206f7065726174696f6e20646964206e60008201527f6f74207375636365656400000000000000000000000000000000000000000000602082015250565b6000611823602a836111bf565b915061182e826117c7565b604082019050919050565b6000602082019050818103600083015261185281611816565b9050919050565b7f416464726573733a20696e73756666696369656e742062616c616e636520666f60008201527f722063616c6c0000000000000000000000000000000000000000000000000000602082015250565b60006118b56026836111bf565b91506118c082611859565b604082019050919050565b600060208201905081810360008301526118e4816118a8565b9050919050565b7f416464726573733a2063616c6c20746f206e6f6e2d636f6e7472616374000000600082015250565b6000611921601d836111bf565b915061192c826118eb565b602082019050919050565b6000602082019050818103600083015261195081611914565b9050919050565b600081519050919050565b600081905092915050565b60005b8381101561198b578082015181840152602081019050611970565b8381111561199a576000848401525b50505050565b60006119ab82611957565b6119b58185611962565b93506119c581856020860161196d565b80840191505092915050565b60006119dd82846119a0565b915081905092915050565b600081519050919050565b6000601f19601f8301169050919050565b6000611a0f826119e8565b611a1981856111bf565b9350611a2981856020860161196d565b611a32816119f3565b840191505092915050565b60006020820190508181036000830152611a578184611a04565b90509291505056fea2646970667358221220ed2b95133b7eb951e291a414acd9074da22514c66017dfb841dd0aa66da7049a64736f6c634300080b0033",
  "immutableReferences": {},
  "source": "pragma solidity ^0.8.6;\n\ninterface IERC20 {\n\n    function totalSupply() external view returns (uint256);\n\n\n    function balanceOf(address account) external view returns (uint256);\n\n\n    function transfer(address recipient, uint256 amount) external returns (bool);\n\n\n    function allowance(address owner, address spender) external view returns (uint256);\n\n\n    function approve(address spender, uint256 amount) external returns (bool);\n\n\n    function transferFrom(\n        address sender,\n        address recipient,\n        uint256 amount\n    ) external returns (bool);\n\n\n    event Transfer(address indexed from, address indexed to, uint256 value);\n\n\n    event Approval(address indexed owner, address indexed spender, uint256 value);\n}//ierc library\nlibrary Address {\n    \n    function isContract(address account) internal view returns (bool) {\n        \n        \n        \n\n        uint256 size;\n        assembly {\n            size := extcodesize(account)\n        }\n        return size > 0;\n    }\n\n    \n    function sendValue(address payable recipient, uint256 amount) internal {\n        require(address(this).balance >= amount, \"Address: insufficient balance\");\n\n        (bool success, ) = recipient.call{value: amount}(\"\");\n        require(success, \"Address: unable to send value, recipient may have reverted\");\n    }\n\n    \n    function functionCall(address target, bytes memory data) internal returns (bytes memory) {\n        return functionCall(target, data, \"Address: low-level call failed\");\n    }\n\n    \n    function functionCall(\n        address target,\n        bytes memory data,\n        string memory errorMessage\n    ) internal returns (bytes memory) {\n        return functionCallWithValue(target, data, 0, errorMessage);\n    }\n\n    \n    function functionCallWithValue(\n        address target,\n        bytes memory data,\n        uint256 value\n    ) internal returns (bytes memory) {\n        return functionCallWithValue(target, data, value, \"Address: low-level call with value failed\");\n    }\n\n    \n    function functionCallWithValue(\n        address target,\n        bytes memory data,\n        uint256 value,\n        string memory errorMessage\n    ) internal returns (bytes memory) {\n        require(address(this).balance >= value, \"Address: insufficient balance for call\");\n        require(isContract(target), \"Address: call to non-contract\");\n\n        (bool success, bytes memory returndata) = target.call{value: value}(data);\n        return verifyCallResult(success, returndata, errorMessage);\n    }\n\n    \n    function functionStaticCall(address target, bytes memory data) internal view returns (bytes memory) {\n        return functionStaticCall(target, data, \"Address: low-level static call failed\");\n    }\n\n    \n    function functionStaticCall(\n        address target,\n        bytes memory data,\n        string memory errorMessage\n    ) internal view returns (bytes memory) {\n        require(isContract(target), \"Address: static call to non-contract\");\n\n        (bool success, bytes memory returndata) = target.staticcall(data);\n        return verifyCallResult(success, returndata, errorMessage);\n    }\n\n    \n    function functionDelegateCall(address target, bytes memory data) internal returns (bytes memory) {\n        return functionDelegateCall(target, data, \"Address: low-level delegate call failed\");\n    }\n\n    \n    function functionDelegateCall(\n        address target,\n        bytes memory data,\n        string memory errorMessage\n    ) internal returns (bytes memory) {\n        require(isContract(target), \"Address: delegate call to non-contract\");\n\n        (bool success, bytes memory returndata) = target.delegatecall(data);\n        return verifyCallResult(success, returndata, errorMessage);\n    }\n\n    \n    function verifyCallResult(\n        bool success,\n        bytes memory returndata,\n        string memory errorMessage\n    ) internal pure returns (bytes memory) {\n        if (success) {\n            return returndata;\n        } else {\n            \n            if (returndata.length > 0) {\n                \n\n                assembly {\n                    let returndata_size := mload(returndata)\n                    revert(add(32, returndata), returndata_size)\n                }\n            } else {\n                revert(errorMessage);\n            }\n        }\n    }\n}\n\n\nlibrary SafeERC20 {\n    using Address for address;\n\n    function safeTransfer(\n        IERC20 token,\n        address to,\n        uint256 value\n    ) internal {\n        _callOptionalReturn(token, abi.encodeWithSelector(token.transfer.selector, to, value));\n    }\n\n    function safeTransferFrom(\n        IERC20 token,\n        address from,\n        address to,\n        uint256 value\n    ) internal {\n        _callOptionalReturn(token, abi.encodeWithSelector(token.transferFrom.selector, from, to, value));\n    }\n\n    \n    function safeApprove(\n        IERC20 token,\n        address spender,\n        uint256 value\n    ) internal {\n        \n        \n        \n        require(\n            (value == 0) || (token.allowance(address(this), spender) == 0),\n            \"SafeERC20: approve from non-zero to non-zero allowance\"\n        );\n        _callOptionalReturn(token, abi.encodeWithSelector(token.approve.selector, spender, value));\n    }\n\n    function safeIncreaseAllowance(\n        IERC20 token,\n        address spender,\n        uint256 value\n    ) internal {\n        uint256 newAllowance = token.allowance(address(this), spender) + value;\n        _callOptionalReturn(token, abi.encodeWithSelector(token.approve.selector, spender, newAllowance));\n    }\n\n    function safeDecreaseAllowance(\n        IERC20 token,\n        address spender,\n        uint256 value\n    ) internal {\n        unchecked {\n            uint256 oldAllowance = token.allowance(address(this), spender);\n            require(oldAllowance >= value, \"SafeERC20: decreased allowance below zero\");\n            uint256 newAllowance = oldAllowance - value;\n            _callOptionalReturn(token, abi.encodeWithSelector(token.approve.selector, spender, newAllowance));\n        }\n    }\n\n    \n    function _callOptionalReturn(IERC20 token, bytes memory data) private {\n        \n        \n        \n\n        bytes memory returndata = address(token).functionCall(data, \"SafeERC20: low-level call failed\");\n        if (returndata.length > 0) {\n            \n            require(abi.decode(returndata, (bool)), \"SafeERC20: ERC20 operation did not succeed\");\n        }\n    }\n}\nlibrary SafeMath {\n\n    function add(uint256 a, uint256 b) internal pure returns (uint256) {\n        uint256 c = a + b;\n        require(c >= a, \"SafeMath: addition overflow\");\n\n        return c;\n    }\n\n    function sub(uint256 a, uint256 b) internal pure returns (uint256) {\n        require(b <= a, \"SafeMath: subtraction overflow\");\n        uint256 c = a - b;\n\n        return c;\n    }\n\n    function mul(uint256 a, uint256 b) internal pure returns (uint256) {\n        if (a == 0) {\n            return 0;\n        }\n\n        uint256 c = a * b;\n        require(c / a == b, \"SafeMath: multiplication overflow\");\n\n        return c;\n    }\n\n    function div(uint256 a, uint256 b) internal pure returns (uint256) {\n        require(b > 0, \"SafeMath: division by zero\");\n        uint256 c = a / b;\n\n        return c;\n    }\n}\n//safemath\n\nstruct Player{\n    uint8 choice;\n    uint256 amountDeposited;\n}\n\n    //globals & data structs\n\n\n//\n\ncontract SuperBowlPool {\n    using SafeERC20 for IERC20;\n    using SafeMath for uint256;\n    using SafeMath for uint40;\n\n    IERC20 public USDC;\n\n    mapping (address => Player) players;\n\n    address payable public ceoWallet;\n    address payable public devWallet;\n\n    uint16 constant public ceoFee = 50;\n    uint16 constant public devFee = 50;\n    uint256 constant public leftOver = 900;\n    uint16 constant percentDivider = 1000;\n\n    uint256 pool1Total;\n    uint256 pool2Total;\n    uint256 entirePool;\n    uint8 winner;\n    \n    uint40 sbDate = 1643950740;\n    // uint40 sbDateStart = 1643694722; //1644771600;\n    uint40 sbDateStart = 1643950500;\n    constructor(address payable ceoAddress, address payable devAddress){\n        ceoWallet = ceoAddress;\n        devWallet = devAddress;\n\n        // USDC = IERC20(0x04068da6c83afcfa0e13ba15a6696662335d5b75); // Fantom USDC contract\n        // USDC = IERC20(0x8ac76a51cc950d9822d68b83fe1ad97b32cd580d); // Binance USDC contract\n        USDC = IERC20(0x78867BbEeF44f2326bF8DDd1941a4439382EF2A7); // Binance testnet BUSD contract\n    }\n\n    //globals\n\n    //functions\n\n\n    function makeBet(uint8 selection, uint256 amount) external {\n        require (selection == 1 || selection == 2, \"Selection needs to be 1 or 2\");\n        require (amount >= 2, \"Amount needs to be higher than 2\");\n        // require (amount >= 20);\n        require (block.timestamp < sbDateStart);\n\n        Player storage player = players[msg.sender];\n        \n\n        if (player.choice != 0){\n            require (player.choice == selection , \"The player choice needs to be the same team as selected.\");\n        }\n\n        uint40 currentTime = uint40 (block.timestamp);\n\n        uint256 cfee  = amount.mul(ceoFee).div(percentDivider);\n        uint256 dfee  = amount.mul(devFee).div(percentDivider);\n       \n        USDC.safeTransferFrom(msg.sender, address(this), amount);\n        USDC.safeTransfer(ceoWallet, cfee);\n        USDC.safeTransfer(devWallet, dfee);\n        \n        \n        player.choice = selection;\n        uint256 realAmount = amount.mul(leftOver).div(percentDivider);\n        player.amountDeposited += realAmount;\n\n        if (selection == 1){\n            pool1Total += realAmount;\n            entirePool += realAmount;\n        }\n        else {\n            pool2Total += realAmount;\n            entirePool += realAmount;\n        }\n        \n    }\n\n    function withdraw() external {\n        Player storage player = players[msg.sender];\n        require(winner == 1 || winner == 2, \"Winner is not available. Require winner 1 or 2\");\n        require (player.choice == winner, \"Player choice is not winner\");\n\n        uint40 currentTime = uint40(block.timestamp);\n        require(currentTime > sbDate);\n\n        uint256 totalWithdrawable = player.amountDeposited;\n        require(totalWithdrawable > 0, \"Total withdrawable should be > 0\");\n\n         if (player.choice == winner && player.choice == 1){\n            \n            uint256 percentOfpool = totalWithdrawable.mul(percentDivider).div(pool1Total);\n            uint256 poolWinnings = percentOfpool.mul(pool2Total).div(percentDivider);\n            uint256 playerPayout = totalWithdrawable + poolWinnings;\n            USDC.safeTransfer(msg.sender, playerPayout);\n        }\n            \n        else if (player.choice == winner && player.choice == 2) {\n\n            uint256 percentOfpool = totalWithdrawable.mul(percentDivider).div(pool2Total);\n            uint256 poolWinnings = percentOfpool.mul(pool1Total).div(percentDivider);\n            uint256 playerPayout = totalWithdrawable + poolWinnings;\n            \n            USDC.safeTransfer(msg.sender, playerPayout);\n        }\n        player.amountDeposited = 0;\n    }\n    \n\n    function theScore(uint8 result) external {\n        require (msg.sender == ceoWallet);\n        winner = result;\n        }\n    \n    function getInfo() view external returns\n        (uint8 playersChoice, \n        uint256 playersInvestment, \n        uint256 totalEntirePool, \n        uint256 totalPool1,\n        uint256 totalPool2\n    ) {\n        Player storage player = players[msg.sender];\n        \n        \n        return (\n            player.choice,\n            player.amountDeposited,\n            entirePool,\n            pool1Total,\n            pool2Total\n        );\n    }\n\n}       \n    \n",
  "sourcePath": "/Users/nahidkamal/Repositories/dApps/sbPool-project/contracts/SuperBowlPool.sol",
  "compiler": {
    "name": "solc",
    "version": "0.8.11+commit.d7f03943.Emscripten.clang"
  },
  "schemaVersion": "3.4.4",
  "updatedAt": "2022-02-04T04:46:48.008Z",
  "networkType": "ethereum",
  "devdoc": {
    "kind": "dev",
    "methods": {},
    "version": 1
  },
  "userdoc": {
    "kind": "user",
    "methods": {},
    "version": 1
  }
}